{
  "_format": "hh-sol-artifact-1",
  "contractName": "BattleshipGame",
  "sourceName": "contracts/BattleshipGame.sol",
  "abi": [
    {
      "inputs": [
        {
          "internalType": "address",
          "name": "_forwarder",
          "type": "address"
        }
      ],
      "stateMutability": "nonpayable",
      "type": "constructor"
    },
    {
      "anonymous": false,
      "inputs": [
        {
          "indexed": false,
          "internalType": "uint256",
          "name": "_nonce",
          "type": "uint256"
        },
        {
          "indexed": false,
          "internalType": "address",
          "name": "_by",
          "type": "address"
        }
      ],
      "name": "Joined",
      "type": "event"
    },
    {
      "anonymous": false,
      "inputs": [
        {
          "indexed": false,
          "internalType": "bool",
          "name": "hit",
          "type": "bool"
        },
        {
          "indexed": false,
          "internalType": "uint256",
          "name": "_game",
          "type": "uint256"
        },
        {
          "indexed": false,
          "internalType": "address",
          "name": "_by",
          "type": "address"
        }
      ],
      "name": "Report",
      "type": "event"
    },
    {
      "anonymous": false,
      "inputs": [
        {
          "indexed": false,
          "internalType": "address",
          "name": "_winner",
          "type": "address"
        },
        {
          "indexed": false,
          "internalType": "uint256",
          "name": "_nonce",
          "type": "uint256"
        },
        {
          "indexed": false,
          "internalType": "address",
          "name": "_by",
          "type": "address"
        }
      ],
      "name": "ResultNotVerifiedYet",
      "type": "event"
    },
    {
      "anonymous": false,
      "inputs": [
        {
          "indexed": false,
          "internalType": "uint8",
          "name": "_x",
          "type": "uint8"
        },
        {
          "indexed": false,
          "internalType": "uint8",
          "name": "_y",
          "type": "uint8"
        },
        {
          "indexed": false,
          "internalType": "uint256",
          "name": "_game",
          "type": "uint256"
        },
        {
          "indexed": false,
          "internalType": "address",
          "name": "_by",
          "type": "address"
        }
      ],
      "name": "Shot",
      "type": "event"
    },
    {
      "anonymous": false,
      "inputs": [
        {
          "indexed": false,
          "internalType": "uint256",
          "name": "_nonce",
          "type": "uint256"
        },
        {
          "indexed": false,
          "internalType": "address",
          "name": "_by",
          "type": "address"
        }
      ],
      "name": "Started",
      "type": "event"
    },
    {
      "anonymous": false,
      "inputs": [
        {
          "indexed": false,
          "internalType": "address",
          "name": "_winner",
          "type": "address"
        },
        {
          "indexed": false,
          "internalType": "uint256",
          "name": "_nonce",
          "type": "uint256"
        },
        {
          "indexed": false,
          "internalType": "address",
          "name": "_by",
          "type": "address"
        }
      ],
      "name": "Won",
      "type": "event"
    },
    {
      "inputs": [],
      "name": "HIT_MAX",
      "outputs": [
        {
          "internalType": "uint256",
          "name": "",
          "type": "uint256"
        }
      ],
      "stateMutability": "view",
      "type": "function"
    },
    {
      "inputs": [
        {
          "internalType": "uint256",
          "name": "_game",
          "type": "uint256"
        },
        {
          "internalType": "uint256[2]",
          "name": "_shot",
          "type": "uint256[2]"
        }
      ],
      "name": "firstTurn",
      "outputs": [],
      "stateMutability": "nonpayable",
      "type": "function"
    },
    {
      "inputs": [],
      "name": "gameIndex",
      "outputs": [
        {
          "internalType": "uint256",
          "name": "",
          "type": "uint256"
        }
      ],
      "stateMutability": "view",
      "type": "function"
    },
    {
      "inputs": [
        {
          "internalType": "uint256",
          "name": "_game",
          "type": "uint256"
        }
      ],
      "name": "gameState",
      "outputs": [
        {
          "internalType": "address[2]",
          "name": "_participants",
          "type": "address[2]"
        },
        {
          "internalType": "uint256[2]",
          "name": "_boards",
          "type": "uint256[2]"
        },
        {
          "internalType": "uint256",
          "name": "_turnNonce",
          "type": "uint256"
        },
        {
          "internalType": "uint256[2]",
          "name": "_hitNonce",
          "type": "uint256[2]"
        },
        {
          "internalType": "address",
          "name": "_winner",
          "type": "address"
        }
      ],
      "stateMutability": "view",
      "type": "function"
    },
    {
      "inputs": [
        {
          "internalType": "uint256",
          "name": "",
          "type": "uint256"
        }
      ],
      "name": "games",
      "outputs": [
        {
          "internalType": "uint256",
          "name": "nonce",
          "type": "uint256"
        },
        {
          "internalType": "address",
          "name": "winnerNotVerified",
          "type": "address"
        },
        {
          "internalType": "address",
          "name": "winner",
          "type": "address"
        }
      ],
      "stateMutability": "view",
      "type": "function"
    },
    {
      "inputs": [
        {
          "internalType": "address",
          "name": "forwarder",
          "type": "address"
        }
      ],
      "name": "isTrustedForwarder",
      "outputs": [
        {
          "internalType": "bool",
          "name": "",
          "type": "bool"
        }
      ],
      "stateMutability": "view",
      "type": "function"
    },
    {
      "inputs": [
        {
          "internalType": "uint256",
          "name": "_game",
          "type": "uint256"
        },
        {
          "internalType": "uint256",
          "name": "boardK256Hash",
          "type": "uint256"
        }
      ],
      "name": "joinGame",
      "outputs": [],
      "stateMutability": "nonpayable",
      "type": "function"
    },
    {
      "inputs": [
        {
          "internalType": "uint256",
          "name": "boardK256Hash",
          "type": "uint256"
        }
      ],
      "name": "newGame",
      "outputs": [],
      "stateMutability": "nonpayable",
      "type": "function"
    },
    {
      "inputs": [
        {
          "internalType": "address",
          "name": "",
          "type": "address"
        }
      ],
      "name": "playing",
      "outputs": [
        {
          "internalType": "uint256",
          "name": "",
          "type": "uint256"
        }
      ],
      "stateMutability": "view",
      "type": "function"
    },
    {
      "inputs": [
        {
          "internalType": "uint256",
          "name": "_game",
          "type": "uint256"
        },
        {
          "internalType": "uint256",
          "name": "boardPacked",
          "type": "uint256"
        }
      ],
      "name": "submitBoard",
      "outputs": [],
      "stateMutability": "nonpayable",
      "type": "function"
    },
    {
      "inputs": [],
      "name": "trustedForwarder",
      "outputs": [
        {
          "internalType": "address",
          "name": "",
          "type": "address"
        }
      ],
      "stateMutability": "view",
      "type": "function"
    },
    {
      "inputs": [
        {
          "internalType": "uint256",
          "name": "_game",
          "type": "uint256"
        },
        {
          "internalType": "bool",
          "name": "_hit",
          "type": "bool"
        },
        {
          "internalType": "uint256[2]",
          "name": "_next",
          "type": "uint256[2]"
        }
      ],
      "name": "turn",
      "outputs": [],
      "stateMutability": "nonpayable",
      "type": "function"
    }
  ],
  "bytecode": "0x60a060405234801561001057600080fd5b506040516118c63803806118c683398101604081905261002f91610055565b6001600160a01b03166080819052600180546001600160a01b0319169091179055610085565b60006020828403121561006757600080fd5b81516001600160a01b038116811461007e57600080fd5b9392505050565b60805161181f6100a76000396000818161018c0152610cb7015261181f6000f3fe608060405234801561001057600080fd5b50600436106100b45760003560e01c80636f6c7e44116100715780636f6c7e44146101e157806372e49ad3146101f45780637da0a8771461020757806387047dd314610232578063b60b9fcb1461023a578063cde9ef781461024d57600080fd5b8063117a5b90146100b95780634ac0b22f146101215780634e0e1a3e1461014f5780635654a34114610173578063572b6c051461017c5780635949202a146101cc575b600080fd5b6100f76100c7366004611492565b6002602052600090815260409020600a810154600f82015460109092015490916001600160a01b03908116911683565b604080519384526001600160a01b0392831660208501529116908201526060015b60405180910390f35b61014161012f3660046114ab565b60036020526000908152604090205481565b604051908152602001610118565b61016261015d366004611492565b610260565b604051610118959493929190611504565b61014160005481565b6101bc61018a3660046114ab565b7f00000000000000000000000000000000000000000000000000000000000000006001600160a01b0390811691161490565b6040519015158152602001610118565b6101df6101da3660046115f2565b61036a565b005b6101df6101ef36600461161f565b610563565b6101df610202366004611663565b61073b565b60015461021a906001600160a01b031681565b6040516001600160a01b039091168152602001610118565b610141601181565b6101df610248366004611663565b610a63565b6101df61025b366004611492565b610bda565b61026861132b565b61027061132b565b600061027a61132b565b600085815260026020819052604080832081518083019283905292909182845b81546001600160a01b0316815260019091019060200180831161029a57505050600089815260026020819052604091829020825180840193849052959a5081019350915082845b8154815260200190600101908083116102e157505050600089815260026020819052604091829020600a810154835180850194859052969a509850600d019350915082845b8154815260200190600101908083116103265750505060009889525050600260205260409096206010015494969395929492936001600160a01b0390931692915050565b60008281526002602052604090206010015482906001600160a01b0316156103c55760405162461bcd60e51b815260206004820152600960248201526821506c617961626c6560b81b60448201526064015b60405180910390fd5b60008181526002602081905260408220600a01546103e3919061169b565b15610408576000828152600260205260409020600101546001600160a01b0316610421565b6000828152600260205260409020546001600160a01b03165b9050806001600160a01b0316610435610cb3565b6001600160a01b0316146104735760405162461bcd60e51b815260206004820152600560248201526410aa3ab93760d91b60448201526064016103bc565b6000848152600260205260409020600a810154156104bc5760405162461bcd60e51b8152602060048201526006602482015265215475726e3160d01b60448201526064016103bc565b600a8101546000908152600b8201602052604090206104dd90856002611349565b50600a810180549060006104f0836116db565b909155505083517fcb31ab4a463e5509b533d318e122a0cf053e4dad032381184dfd8896e3f21ece908560015b60200201518761052b610cb3565b6040805160ff9586168152949093166020850152918301526001600160a01b0316606082015260800160405180910390a15050505050565b6000838152600260205260409020600a8101546105ab5760405162461bcd60e51b815260206004820152600660248201526505475726e3d360d41b60448201526064016103bc565b60008390508382600c016000600185600a01546105c891906116f6565b81526020810191909152604001600020805460ff191691151591909117905583156106335781600d016002600184600a015461060491906116f6565b61060e919061169b565b6002811061061e5761061e6116af565b01805490600061062d836116db565b91905055505b7fba3791752b4597b8ab44178c6149c36fc2bf0e643c22c411029f6cb719d5e01b848661065e610cb3565b60408051931515845260208401929092526001600160a01b03169082015260600160405180910390a1601182600d016002600185600a01546106a091906116f6565b6106aa919061169b565b600281106106ba576106ba6116af565b0154106106cf576106ca85610cf8565b610734565b600a8201546000908152600b8301602052604090206106f090846002611349565b50600a82018054906000610703836116db565b909155505082517fcb31ab4a463e5509b533d318e122a0cf053e4dad032381184dfd8896e3f21ece9084600161051d565b5050505050565b6000828152600260205260409020610751611387565b6107596113a6565b6000610763610cb3565b6001600160a01b031684600001546001600160a01b031614806107a25750610789610cb3565b6001600160a01b031684600101546001600160a01b0316145b6107ee5760405162461bcd60e51b815260206004820152601e60248201527f4e6f742061207061727469636970616e74206f6620746865206d61746368000060448201526064016103bc565b60006107f8610cb3565b6001600160a01b031685600001546001600160a01b03161461081b57600161081e565b60005b90508560405160200161083391815260200190565b60405160208183030381529060405280519060200120856004018260ff1660028110610861576108616116af565b0154146108a65760405162461bcd60e51b81526020600482015260136024820152720c4dec2e4c840d0c2e6d040dad2e6dac2e8c6d606b1b60448201526064016103bc565b6108af86610e27565b935085856006018260ff16600281106108ca576108ca6116af565b0155836008860160ff8316600281106108e5576108e56116af565b6108f392910190600f6113d4565b508460ff821660028110610909576109096116af565b0154600f8601546001600160a01b0390811691161415610a5a5761092c84610ebe565b935091508161096d5760405162461bcd60e51b815260206004820152600d60248201526c125b9d985b1a5908189bd85c99609a1b60448201526064016103bc565b6109848386600b0187600c0188600a01548561122b565b6109e05760405162461bcd60e51b815260206004820152602760248201527f426f61726420616e642073686f74207265706f727420686973746f7279206e6f6044820152660e840dac2e8c6d60cb1b60648201526084016103bc565b8460ff8216600281106109f5576109f56116af565b01546010860180546001600160a01b0319166001600160a01b03909216918217905560408051828152602081018a9052908101919091527f6bcf8a6dacd2be65250e8000b3b3ca55cfc8429fd69e2bf4a34a23fb919226409060600160405180910390a15b50505050505050565b818015801590610a7557506000548111155b610ab15760405162461bcd60e51b815260206004820152600d60248201526c6f75742d6f662d626f756e647360981b60448201526064016103bc565b6000818152600260205260409020546001600160a01b031615801590610aef57506000818152600260205260408120600101546001600160a01b0316145b610b235760405162461bcd60e51b815260206004820152600560248201526410a7b832b760d91b60448201526064016103bc565b610b2b610cb3565b60008481526002602052604081206001810180546001600160a01b0319166001600160a01b03949094169390931790925560059091018390558390600390610b71610cb3565b6001600160a01b031681526020810191909152604001600020557fc0081eeafa0d002abcd7d58d84b6e688d1526b9c3d915a282212ba08c49a17a783610bb5610cb3565b604080519283526001600160a01b0390911660208301520160405180910390a1505050565b600080549080610be9836116db565b9190505550610bf6610cb3565b6000805481526002602052604080822080546001600160a01b0319166001600160a01b03949094169390931790925580548152908120600401829055805490600390610c40610cb3565b6001600160a01b03166001600160a01b03168152602001908152602001600020819055507fcb88c87e28a0e0b68deef72d3d3536c607260b8c80944e6117a896f855eed81f600054610c90610cb3565b604080519283526001600160a01b0390911660208301520160405180910390a150565b60007f00000000000000000000000000000000000000000000000000000000000000006001600160a01b0316331415610cf3575060131936013560601c90565b503390565b6000818152600260205260409020600d81015460111480610d1d5750600e8101546011145b610d515760405162461bcd60e51b815260206004820152600560248201526410a7bb32b960d91b60448201526064016103bc565b60108101546001600160a01b031615610d955760405162461bcd60e51b81526004016103bc9060208082526004908201526327bb32b960e11b604082015260600190565b600d810154601114610db45780600101546001600160a01b0316610dc0565b80546001600160a01b03165b600f820180546001600160a01b0319166001600160a01b039290921691821790556040805182815260208101859052908101919091527f2aa2c519fb6ad6e594b16f1320b6b0329aff3d2dcb85ed0546598cb500063e989060600160405180910390a15050565b610e2f611387565b60005b6005811015610eb85760005b6003811015610ea557610e52600a8561169b565b8382610e5f85600361170d565b610e69919061172c565b600f8110610e7957610e796116af565b60ff9092166020929092020152610e91600a85611744565b935080610e9d816116db565b915050610e3e565b5080610eb0816116db565b915050610e32565b50919050565b6000610ec86113a6565b6040805160a0810182526005815260046020820152600391810182905260608101919091526002608082015260005b60058160ff16101561122057600085610f11836003611758565b60ff16600f8110610f2457610f246116af565b60200201519050600086610f39846003611758565b610f44906001611781565b60ff16600f8110610f5757610f576116af565b60200201519050600087610f6c856003611758565b610f77906002611781565b60ff16600f8110610f8a57610f8a6116af565b60200201519050600a8360ff16101580610fa85750600a8260ff1610155b15610fbb57600096505050505050915091565b60ff811615801590610fd157508060ff16600114155b15610fe457600096505050505050915091565b60ff81161580156110285750600a6001868660ff1660058110611009576110096116af565b60200201516110189086611781565b61102291906117a6565b60ff1610155b8061107457508060ff1660011480156110745750600a6001868660ff1660058110611055576110556116af565b60200201516110649085611781565b61106e91906117a6565b60ff1610155b1561108757600096505050505050915091565b60005b858560ff166005811061109f5761109f6116af565b602002015160ff168160ff1610156112095760ff821661115a57866110c48286611781565b60ff16600a81106110d7576110d76116af565b60200201518360ff16600a81106110f0576110f06116af565b602002015160ff166001141561110f5760009750505050505050915091565b60018761111c8387611781565b60ff16600a811061112f5761112f6116af565b60200201518460ff16600a8110611148576111486116af565b60ff90921660209290920201526111f7565b868460ff16600a811061116f5761116f6116af565b602002015161117e8285611781565b60ff16600a8110611191576111916116af565b602002015160ff16600114156111b05760009750505050505050915091565b6001878560ff16600a81106111c7576111c76116af565b60200201516111d68386611781565b60ff16600a81106111e9576111e96116af565b60ff90921660209290920201525b80611201816117c9565b91505061108a565b505050508080611218906117c9565b915050610ef7565b506001925050915091565b60008060ff831661123a575060015b805b848160ff16101561131b5760ff8181166000908152602089815260408083208054600190910154928b905292205491929091168a83600a8110611281576112816116af565b602002015182600a8110611297576112976116af565b602002015160ff161580156112ae57506001811515145b806112f157508a83600a81106112c6576112c66116af565b602002015182600a81106112dc576112dc6116af565b602002015160ff1660011480156112f1575080155b1561130457600095505050505050611322565b5050508060026113149190611781565b905061123c565b5060019150505b95945050505050565b60405180604001604052806002906020820280368337509192915050565b8260028101928215611377579160200282015b8281111561137757825182559160200191906001019061135c565b5061138392915061145e565b5090565b604051806101e00160405280600f906020820280368337509192915050565b604051806101400160405280600a905b6113be611473565b8152602001906001900390816113b65790505090565b6001830191839082156113775791602002820160005b8382111561142857835183826101000a81548160ff021916908360ff16021790555092602001926001016020816000010492830192600103026113ea565b80156114555782816101000a81549060ff0219169055600101602081600001049283019260010302611428565b50506113839291505b5b80821115611383576000815560010161145f565b604051806101400160405280600a906020820280368337509192915050565b6000602082840312156114a457600080fd5b5035919050565b6000602082840312156114bd57600080fd5b81356001600160a01b03811681146114d457600080fd5b9392505050565b8060005b60028110156114fe5781518452602093840193909101906001016114df565b50505050565b6101008101818760005b60028110156115365781516001600160a01b031683526020928301929091019060010161150e565b50505061154660408301876114db565b84608083015261155960a08301856114db565b6001600160a01b039290921660e09190910152949350505050565b600082601f83011261158557600080fd5b6040516040810181811067ffffffffffffffff821117156115b657634e487b7160e01b600052604160045260246000fd5b80604052508060408401858111156115cd57600080fd5b845b818110156115e75780358352602092830192016115cf565b509195945050505050565b6000806060838503121561160557600080fd5b823591506116168460208501611574565b90509250929050565b60008060006080848603121561163457600080fd5b833592506020840135801515811461164b57600080fd5b915061165a8560408601611574565b90509250925092565b6000806040838503121561167657600080fd5b50508035926020909101359150565b634e487b7160e01b600052601260045260246000fd5b6000826116aa576116aa611685565b500690565b634e487b7160e01b600052603260045260246000fd5b634e487b7160e01b600052601160045260246000fd5b60006000198214156116ef576116ef6116c5565b5060010190565b600082821015611708576117086116c5565b500390565b6000816000190483118215151615611727576117276116c5565b500290565b6000821982111561173f5761173f6116c5565b500190565b60008261175357611753611685565b500490565b600060ff821660ff84168160ff0481118215151615611779576117796116c5565b029392505050565b600060ff821660ff84168060ff0382111561179e5761179e6116c5565b019392505050565b600060ff821660ff8416808210156117c0576117c06116c5565b90039392505050565b600060ff821660ff8114156117e0576117e06116c5565b6001019291505056fea2646970667358221220a550887b7d5f38adabeba92d657918d8a2ed45fd60f8926d2dd0e74e99dc56d164736f6c634300080b0033",
  "linkReferences": {},
  "deployedLinkReferences": {}
}